:020000040000FA
:060000000A128A11ED2F27
:100BE2008316031308108810081188118312031347
:100BF20088017108CE007008CD0008007E088A00C6
:100C02007F0882000A128A11FF250A128A118000C7
:100C1200840A04087D0603190034FF0A0319FE0A38
:100C2200032E202EC730F200162EF20B152E192E8F
:100C32001A2EFF30F0070318F10AFF30F10770088F
:100C42007104031D252E262E132E08003134323452
:100C5200333441343434353436344234373438342E
:100C6200393443342A34303423344434023406349D
:100C7200043405340134093408340A3406340534A2
:100C820009340A340234043401340834F401F5011D
:100C9200701C4C2E4D2E532E7208F4070318F50AC1
:100CA2007308F50701300310F20DF30DFF3E031D2B
:100CB200542E01300310F10CF00CFF3E031D5B2E8D
:100CC20070087104031D662E672E492E7508F10007
:100CD2007408F00008000430F0000030F1000A123D
:100CE2008A11F1250A128A1183120313C401C40A5C
:100CF2006830C5000130C600D030CB004B08C700B9
:100D02000F300A128A111A270A128A11B830F0001B
:100D12000B30F1000A128A1112260A128A11FF30D0
:100D220083120313CB004B08C4006830C5000130A6
:100D3200C600D030CC004C08C7000F300A128A110E
:100D42001A270A128A11B830F0000B30F1000A1289
:100D52008A1112260A128A11752E0A128A11002885
:100D620083120313C101F71FB72EB82EBF2EF60947
:100D7200F709F60A0319F70AC101C10AF91FC22EBF
:100D8200C32ECC2EF809F909F80A0319F90A013021
:100D9200FA007A08C106C201C30176087704031972
:100DA200D32ED42E0B2FC001C00AE22E0130031025
:100DB200F60DF70DFF3E031DD82E0130FA007A081A
:100DC200C007F71FE52EE62ED72E01300310C20D05
:100DD200C30DFF3E031DE72E77087902031DF32E94
:100DE20076087802031CF62EF72EFE2E7608F802FD
:100DF2007708031CF903F902421401300310F70CBF
:100E0200F60CFF3E031DFF2E0130C002031D0A2F08
:100E12000B2FE62E410803190F2F102F152FC20991
:100E2200C309C20A0319C30A4308F7004208F600BD
:100E3200080083120313C8006830F6000130F7007F
:100E42004608F1004508F0004E08F3004D08F20094
:100E52000A128A1147260A128A117108F9007008CB
:100E6200F8000A128A11B1260A128A117608FB00CA
:100E72007B0883120313C900D92FCA01602F4408CB
:100E82004F070339FB007B08CF004708FB00FC013A
:100E92007B08F0007C08F1000A128A1112260A125D
:100EA2008A11831203134F083C3E84000808F0396C
:100EB2008313000488000130FB007B08CA0749083D
:100EC2004A02031C652F662F402FEC2FCA01892F7F
:100ED20044084F070339FB007B08CF004708FB009B
:100EE200FC017B08F0007C08F1000A128A1112262C
:100EF2000A128A11831203134F08383E840008082D
:100F0200F0398313000488000130FB007B08CA0714
:100F120049084A02031C8E2F8F2F692FEC2FB43001
:100F2200F6000030F7004608F1004508F0004E08D0
:100F3200F3004D08F2000A128A1147260A128A119A
:100F42007108F9007008F8000A128A11B1260A1213
:100F52008A117608FB007B0883120313C900CA01B9
:100F6200D22F44084F070739FB007B08CF00470800
:100F7200FB00FC017B08F0007C08F1000A128A11D8
:100F820012260A128A11831203134F08303E84007C
:100F92000808F0398313000488000130FB007B0845
:100FA200CA0749084A02031CD72FD82FB22FEC2FA9
:100FB2004808FB00FC017C08003A0319E12FEC2FE2
:100FC2007B080A3A03193E2F053A0319672F1B3A89
:100FD2000319902FEC2F080083134030FD000630D8
:100FE200FE002730FF00203084000A128A110326F7
:0E0FF2000A128A11CF0183010A128A116C2E95
:04400E00D420FF3F7C
:00000001FF
