:020000040000FA
:060000000A128A11FC2F18
:100C90008316031789018316031388018312031334
:100CA000880108000A128A1148260A128A11582E51
:100CB0002030F9000030FA000130FB000030FC0069
:100CC0000A128A1100270A128A112030F900003016
:100CD000FA000030FB00FC000A128A1100270A12F9
:100CE0008A112030F9000030FA000130FB0000309A
:100CF000FC000A128A1100270A128A112030F9001A
:100D00000030FA000030FB00FC000A128A110027B4
:100D10000A128A11582E582E0A128A110028F6013A
:100D2000F11F932E942E9C2EF009F109F00A03195D
:100D3000F10AF601F60A9C2EF31F9F2EA02EAA2E72
:100D4000F209F309F20A0319F30A0130F4007408F6
:100D5000F606AA2EF701F801700871040319B12EE6
:100D6000B22EEF2EF501F50AC12E01300310F00D61
:100D7000F10DFF3E031DB62E0130F4007408F50797
:100D8000C12EF11FC42EC52EB52EC72EC72E013081
:100D90000310F70DF80DFF3E031DC82E71087302F6
:100DA000031DD42E70087202031CD72ED82EE02EFD
:100DB0007008F2027108031CF303F3027714E02EAB
:100DC00001300310F10CF00CFF3E031DE12E013049
:100DD000F502031DEC2EED2EC72EEF2EEF2E76081A
:100DE0000319F32EF42EFA2EF709F809F70A03195E
:100DF000F80AFA2E7808F1007708F000FF2E0800B4
:100E00000430F0000030F1007A08F3007908F200B5
:100E10000A128A118F260A128A117108FA007008C4
:100E2000F9007B087C04031D162F172F852F7A08E5
:100E300083120313A5007908A4002508803AFF0057
:100E400080307F02031D262F013024020318292F32
:100E50002A2F2C2F852F852F83120313A201A20A7C
:100E6000A601A7012708803AFF0080307F02031DFA
:100E70003B2F04302602031C3E2F3F2F412F6E2FA5
:100E80006E2F831203132208A000260A492F031095
:100E9000A00DFF3E031D472F2008880082308312DB
:100EA0000313A100DD30A000A00B542FA10B542F81
:100EB000013083120313A6070318A70A0030A707FF
:100EC0002708803AFF0080307F02031D692F04301D
:100ED0002602031C6C2F6D2F412F6E2FFF308312C3
:100EE0000313A4070318A50AFF30A5072508803AB5
:100EF000FF0080307F02031D7F2F01302402031882
:100F0000822F832F2C2F852F852F7B037C04031D9D
:100F10008A2F8B2FFB2F7A0883120313A5007908E1
:100F2000A4002508803AFF0080307F02031D9A2F1D
:100F30000130240203189D2F9E2FA02FFB2FFB2F83
:100F4000083083120313A0002008A300A601A70104
:100F50002708803AFF0080307F02031DB12F043044
:100F60002602031CB42FB52FB72FE42FE42F8312D2
:100F700003132308A000260ABF2F0310A00CFF3E76
:100F8000031DBD2F20088800823083120313A100A7
:100F9000DD30A000A00BCA2FA10BCA2F0130831295
:100FA0000313A6070318A70A0030A7072708803AEB
:100FB000FF0080307F02031DDF2F04302602031C58
:100FC000E22FE32FB72FE42FFF3083120313A40780
:100FD0000318A50AFF30A5072508803AFF008030D6
:100FE0007F02031DF52F013024020318F82FF92F7B
:100FF000A02FFB2FFB2F080083010A128A11522E0B
:04400E00D4E0FFFFFC
:00000001FF
